:020000040800F2
:10000000C8040020010100089B120008AF1100087D
:10001000991200087D010008311600080000000058
:10002000000000000000000000000000B9140008FB
:10003000C10100080000000081130008BB14000883
:100040001B0100081B0100081B0100081B01000820
:100050001B0100081B0100081B0100081B01000810
:100060001B0100081B0100081B0100081B01000800
:100070001B0100081B0100081B0100081B010008F0
:100080001B0100081B0100081B0100081B010008E0
:100090001B0100081B0100081B010008C301000828
:1000A0001B0100081B0100081B0100081B010008C0
:1000B0001B0100081B0100081B0100081B010008B0
:1000C0001B0100081B0100081B0100081B010008A0
:1000D0001B0100081B0100081B0100081B01000890
:1000E0001B0100081B0100081B010008DFF80CD0F1
:1000F00000F032F80048004771160008C8040020DC
:100100000648804706480047FEE7FEE7FEE7FEE7B1
:10011000FEE7FEE7FEE7FEE7FEE7FEE71315000851
:10012000ED000008D2B201E000F8012B491EFBD21D
:1001300070470022F6E710B513460A4604461946F2
:10014000FFF7F0FF204610BD421C10F8011B0029EC
:10015000FBD1801A70470000064C074D06E0E068AE
:1001600040F0010394E8070098471034AC42F6D3FE
:10017000FFF7C0FFE418000804190008FEE70000BC
:1001800000224021014800F031B90000000C01407C
:1001900001224021014800F029B90000000C014073
:1001A00000228021014800F021B90000000C01402C
:1001B00001228021014800F019B90000000C014023
:1001C00070474FF4807000F015B8000070B5044619
:1001D00000F012F90546601C02D00448007804447F
:1001E00000F00AF9401BA042FAD370BD1C000020A9
:1001F00070470000044910B50A68024202D0086046
:10020000FFF7F6FF10BD0000140401402DE9F84F80
:10021000DFF8B891002409F1040A0AF1040B23461F
:100220000F270BF1040EC9E00125A5402A40AA4280
:100230007DD1674ED1F804C0ACEB0608B44532D08E
:1002400014DCBCF1030F3AD009DCBCF1000F2AD05A
:10025000BCF1010F1CD0BCF1020F31D11DE0BCF18B
:10026000110F17D0BCF1120F2AD119E0B8F5881F71
:1002700019D006DCB8F5803F15D0B8F5801F1FD126
:1002800011E0B8F5001F0ED0B8F5041F18D10AE030
:10029000CB6815E0CB681B1D12E0CB6808330FE07C
:1002A000CB680C330CE08B682BB1012B4FF00803AB
:1002B00003D0456104E0042302E0056100E000236F
:1002C000FF2A01D8064601E000F104064FEA840542
:1002D00001D9A5F12005D6F8008007FA05FC28EA27
:1002E0000C0803FA05F548EA0508C6F800804D68D1
:1002F000ED0062D5374DAE6946F00106AE61AD69DD
:1003000024F0030605F001050095334D06EB050CBE
:10031000DCF80850A607360F07FA06F825EA0805A4
:10032000DFF8B880404503D14FF0000817E044E003
:10033000DFF8AC80404502D14FF001080FE0DFF854
:10034000A480404502D14FF0020808E0DFF8988011
:10035000404502D14FF0030801E04FF0040808FACD
:1003600006F848EA0508CCF808804D68D9F800601E
:10037000ED034D4601D5164300E096432E604D68CF
:10038000DAF80060AD03554601D5164300E0964308
:100390002E604D68DBF80060ED025D4601D5164326
:1003A00000E096432E604D68DEF80060AD027546B1
:1003B00001D5164300E096432E60641C0D682A4662
:1003C000E5407FF431AFBDE8F88F00000004014044
:1003D0000000111000100240000001400008014020
:1003E000000C014000100140001401400AB10161FD
:1003F00070470904FBE7000001488068704700006F
:100400001C00002002488168027811448160704716
:100410001C000020074810B5016841F01001016080
:10042000032000F075F8002000F006F800F024F832
:10043000002010BD0020024070B50D4D04464FF461
:100440007A712878B1FBF0F00A490968B1FBF0F045
:1004500000F0D7FD48B9102C07D200222146501ECB
:1004600000F036F800206C6070BD012070BD000007
:100470001C000020280000200C4808B5816941F0CC
:1004800001018161816901F001010091C16941F0BF
:100490008051C161C06900F08050009004484168FB
:1004A00021F0E06141F08061416008BD0010024030
:1004B00000000140002809DB00F01F0201219140EB
:1004C0004009800000F1E020C0F8001170470000F2
:1004D000F0B40E4B1B680C46C3F30223C3F10705AF
:1004E000042D00D90425191D072901D2002300E09D
:1004F000DB1E012606FA05F1491E214099409E4067
:10050000761E16403143F0BC01F093B80CED00E0CC
:10051000064900F0070208684FF6FF03184040EA5A
:100520000220034A10430860704700000CED00E011
:100530000000FA052DE9F0470F46050061D0434E53
:10054000306800F00700B84209D2306820F0070098
:1005500038433060306800F00700B84251D1286855
:100560003B4C810712D5400703D5606840F4E0603A
:1005700060602878000703D5606840F460506060D0
:100580006068A96820F0F000084360602878C00720
:1005900028D06868012810D02168022810D0890767
:1005A00000292EDA616821F0030101436160FFF741
:1005B00023FF804641F288390DE021688903EFE787
:1005C0008901EDE7FFF718FFA0EB0801494502D9C3
:1005D0000320BDE8F0876068696800F00C00B0EBAC
:1005E000810FEFD1306800F00700B8420BD93068B6
:1005F00020F0070038433060306800F00700B84250
:1006000001D00120E5E72878400705D56068E96852
:1006100020F4E060084360602878000706D5606831
:10062000296920F4605040EAC100606000F038F8A9
:100630006168084AC1F30311515CC840064908606B
:1006400006480068FFF7F8FE0020C2E700200240DD
:1006500000100240CC1800082800002020000020D4
:100660000448054900684968044AC1F30221515C05
:10067000C84070472800002000100240DC18000825
:100680000448054900684968044AC1F3C221515C25
:10069000C84070472800002000100240DC18000805
:1006A00012A185B00FC98DE80F0014A0144A00688C
:1006B00004905168134801F00C03042B10D0082B50
:1006C0000ED1C1F38343C9031DF803000AD5516855
:1006D00004AAC1F34041515C0A4A5043B0FBF1F017
:1006E00005B0704708494843FAE7000002030405D3
:1006F000060708090A0B0C0D0E0F1010010200006E
:100700000010024000127A0000093D002DE9F84F68
:10071000040070D02078C04DC00749D06868C0F38D
:100720008100012807D06868C0F38100022809D140
:100730006868C00306D52868800339D5606800283A
:10074000E7D035E06068B0F5803F0BD010B1B0F570
:10075000A02F11D0286820F480302860286820F469
:10076000802002E0286840F480302860606890B102
:10077000FFF742FE06460AE0286840F48020286021
:10078000F0E700BFFFF738FE801B642873D82868A5
:100790008003F7D50CE0FFF72FFE064605E000BF0B
:1007A000FFF72AFE801B6428F0D828688003F7D45E
:1007B00020789A4E80074FF001094FF0000839D594
:1007C000686810F00C0F07D06868C0F38100022839
:1007D00009D16868C00306D42868800714D5206949
:1007E000012808D110E02069B0B1C6F80090FFF7E9
:1007F00003FE074605E00AE1FFF7FEFDC01B0228E5
:10080000C4D828688007F7D52868616920F0F80007
:1008100040EAC10028600DE0C6F80080FFF7ECFD5B
:10082000074604E0FFF7E8FDC01B022823D828682C
:100830008007F7D4207800072CD57948A169D9B171
:10084000C0F80090FFF7D8FD074604E0FFF7D4FD9D
:10085000C01B02280FD8686A8007F7D571484FF48B
:10086000FA510068B0FBF1F0009000BF0098411E03
:100870000091FAD20EE080E0C0F80080FFF7BCFDE6
:10088000074604E0FFF7B8FDC01B022875D8686A68
:100890008007F7D42078400760D5E8690027C000BA
:1008A00008D4E86940F08050E861E869012700F069
:1008B000805000905C480168C90513D401688346E4
:1008C00041F480710160FFF797FD824606E000BFAA
:1008D000FFF792FDA0EB0A0064284ED8DBF8000079
:1008E000C005F5D5E06801280AD008B1052813D065
:1008F000286A20F001002862286A20F0040002E043
:10090000286A40F001002862E06841F2883B98B113
:10091000FFF772FD82460BE0286A40F0040028626F
:10092000EEE700BFFFF768FDA0EB0A0159455AD872
:10093000286A8007F6D50CE0FFF75EFD824605E0E9
:10094000FFF75AFDA0EB0A0159454CD8286A8007E9
:10095000F6D41FB1E86920F08050E861E06988B3FF
:100960006968C1F38101022944D00228C6F8608079
:1009700004D0FFF741FD044638E034E0FFF73CFDCA
:10098000074604E0FFF738FDC01B02282BD8286873
:100990008001F7D4206AB0F5803F05D16868A1686E
:1009A00020F4003008436860D4E90801084369680E
:1009B00021F4741108436860C6F86090FFF71CFDCD
:1009C000044606E025E000BFFFF716FD001B0228E5
:1009D00009D828688001F7D51BE000BFFFF70CFDA0
:1009E000001B022802D90320BDE8F88F2868800187
:1009F000F4D40EE00128F7D06868226A00F4803150
:100A0000914204D1616A00F47010884201D0012043
:100A1000EAE70020E8E70000001002400000424240
:100A200080044242280000200070004070B504009D
:100A300009D0606A002540B125616561A56294F81E
:100A4000510040B10CE0012070BD6068B0F5827FBC
:100A5000F4D0E561F2E784F85050204600F040F809
:100A6000022084F851002068016821F040010160F3
:100A7000A088218900F4827001F404410843A1890F
:100A800001F400610843217C01F002010843217D4B
:100A900001F001010843218B01F400710843217F1B
:100AA00001F03801084394F8201001F08001084358
:100AB000218D01F40051084321680860A0690421D8
:100AC00001EA1040216848602068C16921F4006192
:100AD000C1616565012084F85100002070BD0000EF
:100AE00030B585B00024009401940294039400680A
:100AF000174988422AD11748816941F480518161A0
:100B0000816901F480510491816941F0080181619A
:100B10008069114D00F00800049028200090022008
:100B200001900320039069462846FFF76FFB1020D1
:100B3000CDE90004694628460294FFF767FB0748A1
:100B4000416841F0E06141F00101416005B030BD14
:100B50000030014000100240000C01400000014044
:100B60002DE9F84F044640680025984616460F4682
:100B70004FF0040BB0F5827F01D1A06888B194F8E2
:100B80005000012818D0012084F85000FFF734FCF1
:100B9000814694F851004FF0000A01280ED002253A
:100BA00082E084F851B013460A462046CDF8008012
:100BB00000F036F9BDE8F88F0220FBE7002F72D075
:100BC000002E70D084F851B0C4F854A0A763A68753
:100BD000E687C4F830A0A4F834A0A4F836A0C4F87E
:100BE00040A0C4F844A0A068B0F5004F09D1206827
:100BF000016821F0400101602068016821F4804112
:100C0000016020680168490603D4016841F0400191
:100C10000160E068D8B139E020688168C90709D06F
:100C2000007BA16B0870A06B401CA063E08F401E8E
:100C3000E0870CE0FFF7E0FBA0EB0901414503D39F
:100C4000B8F1FF3F03D036E0B8F1000F33D0E08FAA
:100C50000028E1D11DE020688168C90709D0C0687B
:100C6000A16B0880A06B801CA063E08F401EE08712
:100C70000CE0FFF7C1FBA0EB0901414503D3B8F13C
:100C8000FF3F03D017E0B8F1000F14D0E08F002829
:100C9000E1D14A464146204600F073FB08B12020CE
:100CA0006065606D00B10125012084F8510084F871
:100CB00050A028467EE70325F6E72DE9F84F0446C5
:100CC00090F8500000271D461646894601280DD091
:100CD0004FF0010B84F850B0FFF78EFB804694F87C
:100CE0005100BA46012804D0022793E00220BDE853
:100CF000F88FB9F1000F73D0002E71D0032084F863
:100D00005100C4F854A0C4F83090A686E686C4F812
:100D100038A0A4F83CA0A4F83EA0C4F844A0C4F8AD
:100D200040A0A068B0F5004F09D12068016821F00B
:100D3000400101602068016841F480410160206841
:100D40000168490603D4016841F040010160E06890
:100D5000B0F5006F606803D030B3012E24D041E0BD
:100D600008B1012E1CD1206B21680088C86006E004
:100D700020688168890709D5216B0988C160206BCB
:100D8000801C2063E08E401EE08609E0FFF734FB04
:100D9000A0EB0800A84202D3681C01D031E07DB36B
:100DA000E08E0028E4D120E0206B216800780873F1
:100DB00006E020688168890709D5216B09780173ED
:100DC000206B401C2063E08E401EE0860AE0FFF7A7
:100DD00013FBA0EB0800A84203D3681C02D010E06C
:100DE00017E06DB1E08E0028E3D142462946204647
:100DF00000F0F5FA08B120206065A06818B106E09F
:100E0000FFE7032706E02068C16880680090606DF6
:100E100000B1012784F851B084F850A0384666E745
:100E20002DE9F84F044690F8500000270A9E1D4611
:100E300092468B464FF0010901280ED0012084F81C
:100E40005000FFF7D9FA804694F8510061680128F4
:100E50000CD0B1F5827F07D102E00220BDE8F88F07
:100E6000A16809B9042801D00227C2E0BBF1000F34
:100E700027D0BAF1000F24D01DB394F851000428F4
:100E800002D0052084F8510000206065C4F838A025
:100E9000E587A587C4F830B0E586A5862064606440
:100EA00020680168490603D4016841F040010160EF
:100EB000E068B0F5006F606805D0E8B3012D46D05A
:100EC0007FE0012795E008B1012D39D1206B216821
:100ED0000088C860206B801C2063E08E401EE08686
:100EE0002EE02068816889070FD5E18E69B1B9F1DC
:100EF000010F0AD1216B0988C160206B801C20631F
:100F0000E08E401EE0864FF0000920688168C90726
:100F10000CD0E18F51B1C068A16B0880A06B801C20
:100F2000A063E08F401EE0874FF00109FFF764FAED
:100F3000A0EB0800B04200E009E001D3701C50D1E2
:100F4000E08E0028CDD1E08F0028CAD13FE0206B91
:100F5000216800780873206B401C2063E08E401EDF
:100F6000E0862EE02068816889070FD5E18E69B19F
:100F7000B9F1010F0AD1216B09780173206B401C74
:100F80002063E08E401EE0864FF0000920688168F3
:100F9000C9070CD0E18F51B1C068A16B0870A06B7C
:100FA000401CA063E08F401EE0874FF00109FFF76F
:100FB00023FAA0EB0800B04202D3701C01D010E06D
:100FC0007EB1E08E0028CDD1E08F0028CAD1424604
:100FD0003146204600F003FA28B101272020606541
:100FE00007E0032705E0A06818B92068C168806899
:100FF0000090012084F85100002084F85000384609
:101000002CE710B5401EB0F1807F01D3012010BD48
:101010004FF0E02460610F21601700F00AFB002010
:10102000A06107202061002010BD70B5040004D02D
:1010300094F83D00002510B106E0012070BD84F851
:101040003C50204600F022F8242084F83D0020681F
:10105000C16821F40051C160204600F05BFA2068AD
:10106000016921F4904101612068416921F02A0160
:1010700041612068C16841F40051C16025642020AD
:1010800084F83D0084F83E00002070BD30B585B086
:101090000024009401940294039400681449884247
:1010A00023D11448C16941F40031C161C16901F41F
:1010B00000310491816941F00401816180690E4D24
:1010C00000F004000490042000900220019003200E
:1010D000039069462846FFF799F80820CDE90004F7
:1010E000694628460294FFF791F805B030BD00002C
:1010F0000044004000100240000801402DE9F84380
:10110000044690F83D001F4616460D4620284CD157
:10111000C5B1BEB194F83C00012846D0012084F846
:101120003C004FF00008C4F84080212084F83D00C6
:10113000FFF762F9A6848146E684A068B0F5805F77
:1011400003D004E00120BDE8F883206928B12E46D1
:101150005FF0000584F83C800EE00026FAE780216D
:10116000204600F033FAA0B9AEB116F8010B2168A1
:101170004860E08C401EE084E08C4B464FF000025B
:1011800000970028EBD14FF04001204600F01EFAF6
:1011900030B10320D7E735F8020BC0F30800E6E7CB
:1011A000202084F83D000020CDE70220CBE7FEE7B9
:1011B00070B586B0002424480094019402940394EE
:1011C000816941F020018161816901F02001049170
:1011D000816941F004018161816901F00401049198
:1011E000816941F0080181618069184E00F00800B2
:1011F00004900022C0213046FFF7F8F84FF4C66093
:1012000001258DE8310069461148FEF7FFFFC02037
:10121000CDE900050220CDE9024069463046FEF7DF
:10122000F5FF280200900B48CDE9010469463046DD
:10123000FEF7ECFF002211461720FFF749F91720AF
:10124000FFF738F906B070BD00100240000C0140F5
:1012500000080140000021100E4810B50C49016043
:101260004FF48271416000218160C1604FF40072CF
:101270000161C0E90512C1610162416281620A2116
:10128000C162FFF7D3FB002801D072B6FEE710BDA4
:10129000003001402C000020FEE7FEE710B5FEF70D
:1012A0006FFF002000F06EFA0021084600F038FAC7
:1012B0000021012000F034FA0021022000F030FA71
:1012C0000321084600F02CFA0021042000F028FA3F
:1012D0000021052000F024FA0E21062000F020FA5B
:1012E000BDE81040FEF754BF38B5044600208DF825
:1012F0000000FEF755FFA0208DF8000064230122B6
:1013000069461148FFF7D9FC4FF47A732022214631
:101310000D48FFF7D2FCFEF74BFF0120FEF756FF0A
:10132000172000F0E3F9C1060BD5000709D4E1202E
:101330008DF8000000F0BCFA172000F023FA01201D
:1013400038BD002038BD00002C00002070B50D46CF
:101350000446FEF715FF2946052000F0E1F90522B5
:101360002146102000F0F2F9002000F0BFF900F053
:10137000F201002000F0D4F9BDE87040FEF708BF8C
:101380007047F8B5044640684FF48273984217D10D
:10139000A0684FF48065B0F5004F01D0A8420FD18E
:1013A0002068066826F0400606606068984207D10B
:1013B000A068A84204D100920B460022012103E05C
:1013C00000920B4600228021204600F019F80028E8
:1013D00004D0606D40F0200060650320F8BD38B592
:1013E0000B46009204460022802100F009F80028F4
:1013F00004D0606D40F020006065032038BD00001F
:101400002DE9F8431E46914688460446089DFEF79E
:10141000F3FF401B351AFEF7EFFF0746254800682B
:10142000C0F3CB30684338E0701C37D0FEF7E4FFE0
:10143000C01BA84203D215B1009860B32CE020680D
:10144000416821F0E00141606068B0F5827F0BD116
:10145000A068B0F5004F02D0B0F5806F04D12068CD
:10146000016821F040010160A06AB0F5005F09D178
:101470002068016821F4005101602068016841F48E
:1014800000510160012084F85100002084F85000D0
:101490000320BDE8F8830025401E00902068816885
:1014A00038EA010004D000214945BDD10020F0E711
:1014B0000121F9E7280000207047FEF7A3BF30B5EF
:1014C0008FB028216846FEF734FE14210AA8FEF7E3
:1014D00030FE012002250490009510200590002484
:1014E000CDE9075468460994FFF710F908B172B6C0
:1014F000FEE70F200A90CDE90B540D9400210AA8B5
:101500000E94FFF717F8002801D072B6FEE70FB06F
:1015100030BD704770B5044600680169E26821F487
:101520004051114301612169A06808436169084382
:101530002168CA6841F20C639A430243CA6020687A
:101540004169A26921F44071114341611E4920683B
:10155000884202D1FFF794F801E0FFF781F800EB31
:10156000C00101EB0012606864218000B2FBF0F35F
:10157000B3FBF1F36FF018067343B2FBF0F5B2FB67
:10158000F0F605EB8305322303EB0515B5FBF1F50A
:10159000B6FBF1F605F0F00505EB0615B2FBF0F62B
:1015A000B2FBF0F0B0FBF1F06FF01802504306EB25
:1015B000800003EB0010B0FBF1F0216800F00F0099
:1015C0002844886070BD0000003801402DE9F041DA
:1015D000984617460E460446069D1DE0681C1BD023
:1015E0002DB1FEF709FFA0EB0800A84214D920682E
:1015F000C16821F4D071C1602068416921F0010106
:101600004161202084F83D0084F83E00002084F8E9
:101610003C000320BDE8F0812068006836EA000045
:1016200004D00020B842D9D00020F3E70120F9E728
:10163000FEE70907090E002804DB00F1E02080F82E
:101640000014704700F00F0000F1E02080F8141D36
:10165000704702E008C8121F08C1002AFAD170477B
:101660007047002001E001C1121F002AFBD1704722
:10167000FEF7D0FEFFF723FFFFF79AFDFFF7ECFD23
:10168000184817490C2201604FF4E13141600021F4
:101690008160C160C0E904128161C161FFF7C5FCCE
:1016A00008B172B6FEE7FFF7F9FD0A210E48FFF711
:1016B0004DFE4FF47A740C48401DFFF715FE0128CB
:1016C000F9D10948401DFEF73FFD074982B2642366
:1016D000491D0448FFF712FD2046FEF777FDEAE7B3
:1016E00000440040840000200000002001B582B0CA
:1016F00000208DF80000FEF753FD6423012202A9AB
:101700000648FFF7DAFA6423012269460348FFF727
:1017100027FAFEF74DFD9DF800000EBD2C000020BD
:1017200008B540F020008DF800008DF80110FEF79C
:1017300037FD4FF47A73022269460348FFF7BDFA7A
:10174000FEF736FD08BD00002C00002038B540F043
:10175000200014460D468DF80000FEF721FD64239D
:10176000012269460648FFF7A8FAA2B24FF47A733D
:1017700029460348FFF7A1FAFEF71AFD38BD00001D
:101780002C00002000B587B007287FD017287CD018
:1017900008210020FFF7C4FF3F210120FFF7C0FF11
:1017A00003210220FFF7BCFF03210846FFF7B8FF23
:1017B00003210420FFF7B4FF02210520FFF7B0FF4B
:1017C0000E210620FFF7ACFF00210720FFF7A8FF3E
:1017D00000210820FFF7A4FF00210920FFF7A0FF48
:1017E0002FA00522D0E90010CDE9001069460A209B
:1017F000FFF7ACFF2CA00522D0E90010CDE90210C4
:1018000002A90B20FFF7A2FFC3210C20FFF788FFDE
:10181000C4210D20FFF784FFC5210E20FFF780FFB4
:10182000C6210F20FFF77CFF1DA00522D0E9001084
:10183000CDE9041004A91020FFF788FF0021112032
:10184000FFF76EFF00211220FFF76AFF002113202F
:10185000FFF766FF00211420FFF762FF002115202B
:10186000FFF75EFF00211620FFF75AFF1121172016
:10187000FFF756FF00211C20FFF752FF00211D201B
:10188000FFF74EFF07B000BD00E002E00021072097
:1018900001E01121172007B05DF804EBFFF740BF0E
:1018A000E7E7E7E7E7000000C2C2C2C2C2000000EB
:1018B00001B5FEF775FC6423012269460248FFF773
:1018C000FCF9FEF775FC08BD2C00002000000000AC
:1018D00000000000010203040607080900000000E0
:1018E0000102030404190008000000202C0000007D
:1018F00052160008301900082C0000209C0400003B
:1019000062160008EEDDCCBBAA54657374696E677D
:101910002052656365697665722E2E2E0A000000DE
:101920000100000010000000000000000024F4008E
:04000005080000ED02
:00000001FF
